{
  "_format": "hh-sol-artifact-1",
  "contractName": "Escrow",
  "sourceName": "contracts/Escrow.sol",
  "abi": [
    {
      "inputs": [
        {
          "internalType": "uint256",
          "name": "_tradeId",
          "type": "uint256"
        }
      ],
      "name": "getTrade",
      "outputs": [
        {
          "components": [
            {
              "internalType": "address",
              "name": "partyA",
              "type": "address"
            },
            {
              "internalType": "address",
              "name": "partyB",
              "type": "address"
            },
            {
              "internalType": "uint256",
              "name": "val",
              "type": "uint256"
            },
            {
              "internalType": "bool",
              "name": "isSuccess",
              "type": "bool"
            }
          ],
          "internalType": "struct Escrow.Trade",
          "name": "",
          "type": "tuple"
        }
      ],
      "stateMutability": "view",
      "type": "function"
    },
    {
      "inputs": [
        {
          "internalType": "uint256",
          "name": "_tradeId",
          "type": "uint256"
        }
      ],
      "name": "makeRelease",
      "outputs": [
        {
          "internalType": "bool",
          "name": "",
          "type": "bool"
        }
      ],
      "stateMutability": "nonpayable",
      "type": "function"
    },
    {
      "inputs": [
        {
          "internalType": "address",
          "name": "_partyB",
          "type": "address"
        }
      ],
      "name": "makeTrade",
      "outputs": [
        {
          "internalType": "bool",
          "name": "",
          "type": "bool"
        }
      ],
      "stateMutability": "payable",
      "type": "function"
    },
    {
      "inputs": [],
      "name": "tradeId",
      "outputs": [
        {
          "internalType": "uint256",
          "name": "",
          "type": "uint256"
        }
      ],
      "stateMutability": "view",
      "type": "function"
    },
    {
      "stateMutability": "payable",
      "type": "receive"
    }
  ],
  "bytecode": "0x608060405234801561001057600080fd5b50610c8f806100206000396000f3fe6080604052600436106100435760003560e01c806302c5115b1461004f5780631192fd561461007a5780632db25e05146100aa578063dfbc297b146100e75761004a565b3661004a57005b600080fd5b34801561005b57600080fd5b50610064610124565b6040516100719190610a64565b60405180910390f35b610094600480360381019061008f91906107b5565b61012a565b6040516100a1919061098e565b60405180910390f35b3480156100b657600080fd5b506100d160048036038101906100cc91906107de565b6102ae565b6040516100de9190610a49565b60405180910390f35b3480156100f357600080fd5b5061010e600480360381019061010991906107de565b6103ab565b60405161011b919061098e565b60405180910390f35b60015481565b600080341161016e576040517f08c379a0000000000000000000000000000000000000000000000000000000008152600401610165906109a9565b60405180910390fd5b6001600081548092919061018190610ae3565b919050555060405180608001604052803373ffffffffffffffffffffffffffffffffffffffff1681526020018373ffffffffffffffffffffffffffffffffffffffff16815260200134815260200160001515815250600080600154815260200190815260200160002060008201518160000160006101000a81548173ffffffffffffffffffffffffffffffffffffffff021916908373ffffffffffffffffffffffffffffffffffffffff16021790555060208201518160010160006101000a81548173ffffffffffffffffffffffffffffffffffffffff021916908373ffffffffffffffffffffffffffffffffffffffff1602179055506040820151816002015560608201518160030160006101000a81548160ff02191690831515021790555090505060019050919050565b6102b6610735565b6000808381526020019081526020016000206040518060800160405290816000820160009054906101000a900473ffffffffffffffffffffffffffffffffffffffff1673ffffffffffffffffffffffffffffffffffffffff1673ffffffffffffffffffffffffffffffffffffffff1681526020016001820160009054906101000a900473ffffffffffffffffffffffffffffffffffffffff1673ffffffffffffffffffffffffffffffffffffffff1673ffffffffffffffffffffffffffffffffffffffff168152602001600282015481526020016003820160009054906101000a900460ff1615151515815250509050919050565b60008082116103ef576040517f08c379a00000000000000000000000000000000000000000000000000000000081526004016103e690610a09565b60405180910390fd5b60008060008481526020019081526020016000206040518060800160405290816000820160009054906101000a900473ffffffffffffffffffffffffffffffffffffffff1673ffffffffffffffffffffffffffffffffffffffff1673ffffffffffffffffffffffffffffffffffffffff1681526020016001820160009054906101000a900473ffffffffffffffffffffffffffffffffffffffff1673ffffffffffffffffffffffffffffffffffffffff1673ffffffffffffffffffffffffffffffffffffffff168152602001600282015481526020016003820160009054906101000a900460ff1615151515815250509050806060015115610526576040517f08c379a000000000000000000000000000000000000000000000000000000000815260040161051d906109e9565b60405180910390fd5b806000015173ffffffffffffffffffffffffffffffffffffffff163373ffffffffffffffffffffffffffffffffffffffff1614610598576040517f08c379a000000000000000000000000000000000000000000000000000000000815260040161058f90610a29565b60405180910390fd5b60018160600190151590811515815250508060008085815260200190815260200160002060008201518160000160006101000a81548173ffffffffffffffffffffffffffffffffffffffff021916908373ffffffffffffffffffffffffffffffffffffffff16021790555060208201518160010160006101000a81548173ffffffffffffffffffffffffffffffffffffffff021916908373ffffffffffffffffffffffffffffffffffffffff1602179055506040820151816002015560608201518160030160006101000a81548160ff0219169083151502179055509050506000816020015173ffffffffffffffffffffffffffffffffffffffff1682604001516040516106a590610979565b60006040518083038185875af1925050503d80600081146106e2576040519150601f19603f3d011682016040523d82523d6000602084013e6106e7565b606091505b505090508061072b576040517f08c379a0000000000000000000000000000000000000000000000000000000008152600401610722906109c9565b60405180910390fd5b8092505050919050565b6040518060800160405280600073ffffffffffffffffffffffffffffffffffffffff168152602001600073ffffffffffffffffffffffffffffffffffffffff168152602001600081526020016000151581525090565b60008135905061079a81610c2b565b92915050565b6000813590506107af81610c42565b92915050565b6000602082840312156107c757600080fd5b60006107d58482850161078b565b91505092915050565b6000602082840312156107f057600080fd5b60006107fe848285016107a0565b91505092915050565b61081081610a9b565b82525050565b61081f81610aad565b82525050565b61082e81610aad565b82525050565b6000610841602083610a8a565b915061084c82610b5b565b602082019050919050565b6000610864601183610a8a565b915061086f82610b84565b602082019050919050565b6000610887601883610a8a565b915061089282610bad565b602082019050919050565b60006108aa600083610a7f565b91506108b582610bd6565b600082019050919050565b60006108cd600f83610a8a565b91506108d882610bd9565b602082019050919050565b60006108f0600f83610a8a565b91506108fb82610c02565b602082019050919050565b60808201600082015161091c6000850182610807565b50602082015161092f6020850182610807565b506040820151610942604085018261095b565b5060608201516109556060850182610816565b50505050565b61096481610ad9565b82525050565b61097381610ad9565b82525050565b60006109848261089d565b9150819050919050565b60006020820190506109a36000830184610825565b92915050565b600060208201905081810360008301526109c281610834565b9050919050565b600060208201905081810360008301526109e281610857565b9050919050565b60006020820190508181036000830152610a028161087a565b9050919050565b60006020820190508181036000830152610a22816108c0565b9050919050565b60006020820190508181036000830152610a42816108e3565b9050919050565b6000608082019050610a5e6000830184610906565b92915050565b6000602082019050610a79600083018461096a565b92915050565b600081905092915050565b600082825260208201905092915050565b6000610aa682610ab9565b9050919050565b60008115159050919050565b600073ffffffffffffffffffffffffffffffffffffffff82169050919050565b6000819050919050565b6000610aee82610ad9565b91507fffffffffffffffffffffffffffffffffffffffffffffffffffffffffffffffff821415610b2157610b20610b2c565b5b600182019050919050565b7f4e487b7100000000000000000000000000000000000000000000000000000000600052601160045260246000fd5b7f416d6f756e74206d75737420626520677261746572207468616e207a65726f21600082015250565b7f5472616e73616374696f6e206661696c21000000000000000000000000000000600082015250565b7f547261646520697320616c726561647920737563636573730000000000000000600082015250565b50565b7f5472616465496420526571756972650000000000000000000000000000000000600082015250565b7f4e6f742076616c69642070617274790000000000000000000000000000000000600082015250565b610c3481610a9b565b8114610c3f57600080fd5b50565b610c4b81610ad9565b8114610c5657600080fd5b5056fea2646970667358221220cde6ba5853eeb715dd2328c98186f59dc6380a67d0e7eac9e415227dc72689e164736f6c63430008020033",
  "linkReferences": {},
  "deployedLinkReferences": {}
}